{
  "contractName": "TokenVesting",
  "abi": [
    {
      "inputs": [
        {
          "internalType": "address",
          "name": "_beneficiary",
          "type": "address"
        },
        {
          "internalType": "uint256",
          "name": "_t0",
          "type": "uint256"
        },
        {
          "internalType": "uint256",
          "name": "_t1",
          "type": "uint256"
        },
        {
          "internalType": "uint256",
          "name": "_initialAmount",
          "type": "uint256"
        },
        {
          "internalType": "uint256",
          "name": "_duration",
          "type": "uint256"
        },
        {
          "internalType": "address",
          "name": "_owner",
          "type": "address"
        }
      ],
      "stateMutability": "nonpayable",
      "type": "constructor"
    },
    {
      "anonymous": false,
      "inputs": [
        {
          "indexed": true,
          "internalType": "address",
          "name": "previousOwner",
          "type": "address"
        },
        {
          "indexed": true,
          "internalType": "address",
          "name": "newOwner",
          "type": "address"
        }
      ],
      "name": "OwnershipTransferred",
      "type": "event"
    },
    {
      "anonymous": false,
      "inputs": [
        {
          "indexed": false,
          "internalType": "address",
          "name": "token",
          "type": "address"
        },
        {
          "indexed": false,
          "internalType": "uint256",
          "name": "amount",
          "type": "uint256"
        }
      ],
      "name": "TokensReleased",
      "type": "event"
    },
    {
      "inputs": [],
      "name": "owner",
      "outputs": [
        {
          "internalType": "address",
          "name": "",
          "type": "address"
        }
      ],
      "stateMutability": "view",
      "type": "function"
    },
    {
      "inputs": [],
      "name": "renounceOwnership",
      "outputs": [],
      "stateMutability": "nonpayable",
      "type": "function"
    },
    {
      "inputs": [
        {
          "internalType": "address",
          "name": "newOwner",
          "type": "address"
        }
      ],
      "name": "transferOwnership",
      "outputs": [],
      "stateMutability": "nonpayable",
      "type": "function"
    },
    {
      "inputs": [],
      "name": "getBeneficiary",
      "outputs": [
        {
          "internalType": "address",
          "name": "",
          "type": "address"
        }
      ],
      "stateMutability": "view",
      "type": "function"
    },
    {
      "inputs": [],
      "name": "getInitialAmount",
      "outputs": [
        {
          "internalType": "uint256",
          "name": "",
          "type": "uint256"
        }
      ],
      "stateMutability": "view",
      "type": "function"
    },
    {
      "inputs": [],
      "name": "getT0",
      "outputs": [
        {
          "internalType": "uint256",
          "name": "",
          "type": "uint256"
        }
      ],
      "stateMutability": "view",
      "type": "function"
    },
    {
      "inputs": [],
      "name": "getT1",
      "outputs": [
        {
          "internalType": "uint256",
          "name": "",
          "type": "uint256"
        }
      ],
      "stateMutability": "view",
      "type": "function"
    },
    {
      "inputs": [],
      "name": "getDuration",
      "outputs": [
        {
          "internalType": "uint256",
          "name": "",
          "type": "uint256"
        }
      ],
      "stateMutability": "view",
      "type": "function"
    },
    {
      "inputs": [
        {
          "internalType": "address",
          "name": "token",
          "type": "address"
        }
      ],
      "name": "getReleased",
      "outputs": [
        {
          "internalType": "uint256",
          "name": "",
          "type": "uint256"
        }
      ],
      "stateMutability": "view",
      "type": "function"
    },
    {
      "inputs": [
        {
          "internalType": "contract IERC20",
          "name": "token",
          "type": "address"
        }
      ],
      "name": "getVestedAmount",
      "outputs": [
        {
          "internalType": "uint256",
          "name": "",
          "type": "uint256"
        }
      ],
      "stateMutability": "view",
      "type": "function"
    },
    {
      "inputs": [
        {
          "internalType": "contract IERC20",
          "name": "token",
          "type": "address"
        }
      ],
      "name": "release",
      "outputs": [],
      "stateMutability": "nonpayable",
      "type": "function"
    }
  ],
  "bytecode": "0x60806040523480156200001157600080fd5b5060405162001cbf38038062001cbf8339818101604052810190620000379190620004d2565b620000576200004b6200022260201b60201c565b6200022a60201b60201c565b600073ffffffffffffffffffffffffffffffffffffffff168673ffffffffffffffffffffffffffffffffffffffff161415620000ca576040517f08c379a0000000000000000000000000000000000000000000000000000000008152600401620000c190620005f5565b60405180910390fd5b8385111562000110576040517f08c379a000000000000000000000000000000000000000000000000000000000815260040162000107906200068d565b60405180910390fd5b6000821162000156576040517f08c379a00000000000000000000000000000000000000000000000000000000081526004016200014d90620006ff565b60405180910390fd5b42828562000165919062000750565b11620001a8576040517f08c379a00000000000000000000000000000000000000000000000000000000081526004016200019f9062000823565b60405180910390fd5b8260058190555085600160006101000a81548173ffffffffffffffffffffffffffffffffffffffff021916908373ffffffffffffffffffffffffffffffffffffffff1602179055508160048190555084600281905550836003819055506200021681620002ee60201b60201c565b5050505050506200094f565b600033905090565b60008060009054906101000a900473ffffffffffffffffffffffffffffffffffffffff169050816000806101000a81548173ffffffffffffffffffffffffffffffffffffffff021916908373ffffffffffffffffffffffffffffffffffffffff1602179055508173ffffffffffffffffffffffffffffffffffffffff168173ffffffffffffffffffffffffffffffffffffffff167f8be0079c531659141344cd1fd0a4f28419497f9722a3daafe3b4186f6b6457e060405160405180910390a35050565b620002fe6200022260201b60201c565b73ffffffffffffffffffffffffffffffffffffffff16620003246200040460201b60201c565b73ffffffffffffffffffffffffffffffffffffffff16146200037d576040517f08c379a0000000000000000000000000000000000000000000000000000000008152600401620003749062000895565b60405180910390fd5b600073ffffffffffffffffffffffffffffffffffffffff168173ffffffffffffffffffffffffffffffffffffffff161415620003f0576040517f08c379a0000000000000000000000000000000000000000000000000000000008152600401620003e7906200092d565b60405180910390fd5b62000401816200022a60201b60201c565b50565b60008060009054906101000a900473ffffffffffffffffffffffffffffffffffffffff16905090565b600080fd5b600073ffffffffffffffffffffffffffffffffffffffff82169050919050565b60006200045f8262000432565b9050919050565b620004718162000452565b81146200047d57600080fd5b50565b600081519050620004918162000466565b92915050565b6000819050919050565b620004ac8162000497565b8114620004b857600080fd5b50565b600081519050620004cc81620004a1565b92915050565b60008060008060008060c08789031215620004f257620004f16200042d565b5b60006200050289828a0162000480565b96505060206200051589828a01620004bb565b95505060406200052889828a01620004bb565b94505060606200053b89828a01620004bb565b93505060806200054e89828a01620004bb565b92505060a06200056189828a0162000480565b9150509295509295509295565b600082825260208201905092915050565b7f546f6b656e56657374696e673a2062656e65666963696172792069732074686560008201527f207a65726f206164647265737300000000000000000000000000000000000000602082015250565b6000620005dd602d836200056e565b9150620005ea826200057f565b604082019050919050565b600060208201905081810360008301526200061081620005ce565b9050919050565b7f546f6b656e56657374696e673a20743020697320626967676572207468616e2060008201527f7431000000000000000000000000000000000000000000000000000000000000602082015250565b6000620006756022836200056e565b9150620006828262000617565b604082019050919050565b60006020820190508181036000830152620006a88162000666565b9050919050565b7f546f6b656e56657374696e673a206475726174696f6e20697320300000000000600082015250565b6000620006e7601b836200056e565b9150620006f482620006af565b602082019050919050565b600060208201905081810360008301526200071a81620006d8565b9050919050565b7f4e487b7100000000000000000000000000000000000000000000000000000000600052601160045260246000fd5b60006200075d8262000497565b91506200076a8362000497565b9250827fffffffffffffffffffffffffffffffffffffffffffffffffffffffffffffffff03821115620007a257620007a162000721565b5b828201905092915050565b7f546f6b656e56657374696e673a2066696e616c2074696d65206973206265666f60008201527f72652063757272656e742074696d650000000000000000000000000000000000602082015250565b60006200080b602f836200056e565b91506200081882620007ad565b604082019050919050565b600060208201905081810360008301526200083e81620007fc565b9050919050565b7f4f776e61626c653a2063616c6c6572206973206e6f7420746865206f776e6572600082015250565b60006200087d6020836200056e565b91506200088a8262000845565b602082019050919050565b60006020820190508181036000830152620008b0816200086e565b9050919050565b7f4f776e61626c653a206e6577206f776e657220697320746865207a65726f206160008201527f6464726573730000000000000000000000000000000000000000000000000000602082015250565b6000620009156026836200056e565b91506200092282620008b7565b604082019050919050565b60006020820190508181036000830152620009488162000906565b9050919050565b611360806200095f6000396000f3fe608060405234801561001057600080fd5b50600436106100a95760003560e01c8063ad2e8c9b11610071578063ad2e8c9b1461012e578063b4d11f351461014c578063ce6210141461017c578063d5a73fdd1461019a578063f2fde38b146101ca578063fbc81fc8146101e6576100a9565b806319165587146100ae578063396e5d10146100ca578063565a2e2c146100e8578063715018a6146101065780638da5cb5b14610110575b600080fd5b6100c860048036038101906100c39190610bd9565b610204565b005b6100d261036c565b6040516100df9190610c1f565b60405180910390f35b6100f0610376565b6040516100fd9190610c49565b60405180910390f35b61010e6103a0565b005b610118610428565b6040516101259190610c49565b60405180910390f35b610136610451565b6040516101439190610c1f565b60405180910390f35b61016660048036038101906101619190610c90565b61045b565b6040516101739190610c1f565b60405180910390f35b6101846104a4565b6040516101919190610c1f565b60405180910390f35b6101b460048036038101906101af9190610bd9565b6104ae565b6040516101c19190610c1f565b60405180910390f35b6101e460048036038101906101df9190610c90565b6104c0565b005b6101ee6105b8565b6040516101fb9190610c1f565b60405180910390f35b600061020f826105c2565b905060008111610254576040517f08c379a000000000000000000000000000000000000000000000000000000000815260040161024b90610d1a565b60405180910390fd5b80600660008473ffffffffffffffffffffffffffffffffffffffff1673ffffffffffffffffffffffffffffffffffffffff1681526020019081526020016000205461029f9190610d69565b600660008473ffffffffffffffffffffffffffffffffffffffff1673ffffffffffffffffffffffffffffffffffffffff1681526020019081526020016000208190555061032f600160009054906101000a900473ffffffffffffffffffffffffffffffffffffffff16828473ffffffffffffffffffffffffffffffffffffffff1661061e9092919063ffffffff16565b7fc7798891864187665ac6dd119286e44ec13f014527aeeb2b8eb3fd413df931798282604051610360929190610dbf565b60405180910390a15050565b6000600554905090565b6000600160009054906101000a900473ffffffffffffffffffffffffffffffffffffffff16905090565b6103a86106a4565b73ffffffffffffffffffffffffffffffffffffffff166103c6610428565b73ffffffffffffffffffffffffffffffffffffffff161461041c576040517f08c379a000000000000000000000000000000000000000000000000000000000815260040161041390610e34565b60405180910390fd5b61042660006106ac565b565b60008060009054906101000a900473ffffffffffffffffffffffffffffffffffffffff16905090565b6000600454905090565b6000600660008373ffffffffffffffffffffffffffffffffffffffff1673ffffffffffffffffffffffffffffffffffffffff168152602001908152602001600020549050919050565b6000600354905090565b60006104b982610770565b9050919050565b6104c86106a4565b73ffffffffffffffffffffffffffffffffffffffff166104e6610428565b73ffffffffffffffffffffffffffffffffffffffff161461053c576040517f08c379a000000000000000000000000000000000000000000000000000000000815260040161053390610e34565b60405180910390fd5b600073ffffffffffffffffffffffffffffffffffffffff168173ffffffffffffffffffffffffffffffffffffffff1614156105ac576040517f08c379a00000000000000000000000000000000000000000000000000000000081526004016105a390610ec6565b60405180910390fd5b6105b5816106ac565b50565b6000600254905090565b6000600660008373ffffffffffffffffffffffffffffffffffffffff1673ffffffffffffffffffffffffffffffffffffffff1681526020019081526020016000205461060d83610770565b6106179190610ee6565b9050919050565b61069f8363a9059cbb60e01b848460405160240161063d929190610dbf565b604051602081830303815290604052907bffffffffffffffffffffffffffffffffffffffffffffffffffffffff19166020820180517bffffffffffffffffffffffffffffffffffffffffffffffffffffffff83818316178352505050506108f7565b505050565b600033905090565b60008060009054906101000a900473ffffffffffffffffffffffffffffffffffffffff169050816000806101000a81548173ffffffffffffffffffffffffffffffffffffffff021916908373ffffffffffffffffffffffffffffffffffffffff1602179055508173ffffffffffffffffffffffffffffffffffffffff168173ffffffffffffffffffffffffffffffffffffffff167f8be0079c531659141344cd1fd0a4f28419497f9722a3daafe3b4186f6b6457e060405160405180910390a35050565b6000808273ffffffffffffffffffffffffffffffffffffffff166370a08231306040518263ffffffff1660e01b81526004016107ac9190610c49565b60206040518083038186803b1580156107c457600080fd5b505afa1580156107d8573d6000803e3d6000fd5b505050506040513d601f19601f820116820180604052508101906107fc9190610f46565b90506000600660008573ffffffffffffffffffffffffffffffffffffffff1673ffffffffffffffffffffffffffffffffffffffff168152602001908152602001600020548261084b9190610d69565b9050600254421015610862576000925050506108f2565b6002544210158015610875575060035442105b1561088657600554925050506108f2565b6004546003546108969190610d69565b4211156108a75780925050506108f2565b6000600554826108b79190610ee6565b9050600454600354426108ca9190610ee6565b826108d59190610f73565b6108df9190610ffc565b6005546108ec9190610d69565b93505050505b919050565b6000610959826040518060400160405280602081526020017f5361666545524332303a206c6f772d6c6576656c2063616c6c206661696c65648152508573ffffffffffffffffffffffffffffffffffffffff166109be9092919063ffffffff16565b90506000815111156109b957808060200190518101906109799190611065565b6109b8576040517f08c379a00000000000000000000000000000000000000000000000000000000081526004016109af90611104565b60405180910390fd5b5b505050565b60606109cd84846000856109d6565b90509392505050565b606082471015610a1b576040517f08c379a0000000000000000000000000000000000000000000000000000000008152600401610a1290611196565b60405180910390fd5b610a2485610aea565b610a63576040517f08c379a0000000000000000000000000000000000000000000000000000000008152600401610a5a90611202565b60405180910390fd5b6000808673ffffffffffffffffffffffffffffffffffffffff168587604051610a8c919061129c565b60006040518083038185875af1925050503d8060008114610ac9576040519150601f19603f3d011682016040523d82523d6000602084013e610ace565b606091505b5091509150610ade828286610afd565b92505050949350505050565b600080823b905060008111915050919050565b60608315610b0d57829050610b5d565b600083511115610b205782518084602001fd5b816040517f08c379a0000000000000000000000000000000000000000000000000000000008152600401610b549190611308565b60405180910390fd5b9392505050565b600080fd5b600073ffffffffffffffffffffffffffffffffffffffff82169050919050565b6000610b9482610b69565b9050919050565b6000610ba682610b89565b9050919050565b610bb681610b9b565b8114610bc157600080fd5b50565b600081359050610bd381610bad565b92915050565b600060208284031215610bef57610bee610b64565b5b6000610bfd84828501610bc4565b91505092915050565b6000819050919050565b610c1981610c06565b82525050565b6000602082019050610c346000830184610c10565b92915050565b610c4381610b89565b82525050565b6000602082019050610c5e6000830184610c3a565b92915050565b610c6d81610b89565b8114610c7857600080fd5b50565b600081359050610c8a81610c64565b92915050565b600060208284031215610ca657610ca5610b64565b5b6000610cb484828501610c7b565b91505092915050565b600082825260208201905092915050565b7f546f6b656e56657374696e673a206e6f20746f6b656e73206172652064756500600082015250565b6000610d04601f83610cbd565b9150610d0f82610cce565b602082019050919050565b60006020820190508181036000830152610d3381610cf7565b9050919050565b7f4e487b7100000000000000000000000000000000000000000000000000000000600052601160045260246000fd5b6000610d7482610c06565b9150610d7f83610c06565b9250827fffffffffffffffffffffffffffffffffffffffffffffffffffffffffffffffff03821115610db457610db3610d3a565b5b828201905092915050565b6000604082019050610dd46000830185610c3a565b610de16020830184610c10565b9392505050565b7f4f776e61626c653a2063616c6c6572206973206e6f7420746865206f776e6572600082015250565b6000610e1e602083610cbd565b9150610e2982610de8565b602082019050919050565b60006020820190508181036000830152610e4d81610e11565b9050919050565b7f4f776e61626c653a206e6577206f776e657220697320746865207a65726f206160008201527f6464726573730000000000000000000000000000000000000000000000000000602082015250565b6000610eb0602683610cbd565b9150610ebb82610e54565b604082019050919050565b60006020820190508181036000830152610edf81610ea3565b9050919050565b6000610ef182610c06565b9150610efc83610c06565b925082821015610f0f57610f0e610d3a565b5b828203905092915050565b610f2381610c06565b8114610f2e57600080fd5b50565b600081519050610f4081610f1a565b92915050565b600060208284031215610f5c57610f5b610b64565b5b6000610f6a84828501610f31565b91505092915050565b6000610f7e82610c06565b9150610f8983610c06565b9250817fffffffffffffffffffffffffffffffffffffffffffffffffffffffffffffffff0483118215151615610fc257610fc1610d3a565b5b828202905092915050565b7f4e487b7100000000000000000000000000000000000000000000000000000000600052601260045260246000fd5b600061100782610c06565b915061101283610c06565b92508261102257611021610fcd565b5b828204905092915050565b60008115159050919050565b6110428161102d565b811461104d57600080fd5b50565b60008151905061105f81611039565b92915050565b60006020828403121561107b5761107a610b64565b5b600061108984828501611050565b91505092915050565b7f5361666545524332303a204552433230206f7065726174696f6e20646964206e60008201527f6f74207375636365656400000000000000000000000000000000000000000000602082015250565b60006110ee602a83610cbd565b91506110f982611092565b604082019050919050565b6000602082019050818103600083015261111d816110e1565b9050919050565b7f416464726573733a20696e73756666696369656e742062616c616e636520666f60008201527f722063616c6c0000000000000000000000000000000000000000000000000000602082015250565b6000611180602683610cbd565b915061118b82611124565b604082019050919050565b600060208201905081810360008301526111af81611173565b9050919050565b7f416464726573733a2063616c6c20746f206e6f6e2d636f6e7472616374000000600082015250565b60006111ec601d83610cbd565b91506111f7826111b6565b602082019050919050565b6000602082019050818103600083015261121b816111df565b9050919050565b600081519050919050565b600081905092915050565b60005b8381101561125657808201518184015260208101905061123b565b83811115611265576000848401525b50505050565b600061127682611222565b611280818561122d565b9350611290818560208601611238565b80840191505092915050565b60006112a8828461126b565b915081905092915050565b600081519050919050565b6000601f19601f8301169050919050565b60006112da826112b3565b6112e48185610cbd565b93506112f4818560208601611238565b6112fd816112be565b840191505092915050565b6000602082019050818103600083015261132281846112cf565b90509291505056fea26469706673582212208ed9fc69976218b15ece737ec9d68a1e27e27147c22663f8b32aa629d0b7f20e64736f6c63430008090033",
  "immutableReferences": {},
  "source": "// SPDX-License-Identifier: UNLICENSED\r\npragma solidity ^0.8.3;\r\n\r\nimport \"@openzeppelin/contracts/token/ERC20/utils/SafeERC20.sol\";\r\nimport \"@openzeppelin/contracts/access/Ownable.sol\";\r\n\r\n/**\r\n * @title TokenVesting\r\n * @dev A token holder contract that can release its token balance gradually like a\r\n * typical vesting scheme, with a cliff and vesting period. Optionally revocable by the\r\n * owner.\r\n */\r\ncontract TokenVesting is Ownable {\r\n  // The vesting schedule is time-based\r\n  // solhint-disable not-rely-on-time\r\n\r\n  using SafeERC20 for IERC20;\r\n\r\n  event TokensReleased(address token, uint256 amount);\r\n\r\n  // beneficiary of tokens after they are released\r\n  address private beneficiary;\r\n  // Durations and timestamps are expressed in UNIX time, the same units as block.timestamp.\r\n  uint256 private t0;\r\n  uint256 private t1;\r\n  uint256 private duration; //duration of the release after t1\r\n  uint256 private initialAmount;\r\n\r\n  mapping(address => uint256) private released;\r\n  mapping(address => bool) private revoked;\r\n\r\n  /**\r\n   * @dev Creates a vesting contract that vests its balance of any ERC20 token to the\r\n   * beneficiary, gradually in a linear fashion until start + duration. By then all\r\n   * of the balance will have vested.\r\n   * @param _beneficiary address of the beneficiary to whom vested tokens are transferred\r\n   * @param _t0 the time (as Unix time) at which point initial release start\r\n   * @param _t1 the time (as Unix time) at which point linear release vesting starts\r\n   * @param _duration duration in seconds of the period in which the tokens will vest\r\n   */\r\n  constructor(\r\n    address _beneficiary,\r\n    uint256 _t0,\r\n    uint256 _t1,\r\n    uint256 _initialAmount, // initial amount delivered\r\n    uint256 _duration,\r\n    address _owner\r\n  ) {\r\n    require(\r\n      _beneficiary != address(0),\r\n      'TokenVesting: beneficiary is the zero address'\r\n    );\r\n    // solhint-disable-next-line max-line-length\r\n    require(\r\n      _t0 <= _t1,\r\n      'TokenVesting: t0 is bigger than t1'\r\n    );\r\n    require(_duration > 0, 'TokenVesting: duration is 0');\r\n    // solhint-disable-next-line max-line-length\r\n    require(\r\n      _t1 +_duration > block.timestamp,\r\n      'TokenVesting: final time is before current time'\r\n    );\r\n\r\n    initialAmount = _initialAmount;\r\n    beneficiary = _beneficiary;\r\n    duration = _duration;\r\n    t0 = _t0;\r\n    t1 = _t1;\r\n\r\n    // ownable call for ownership transfer\r\n    transferOwnership(_owner);\r\n  }\r\n\r\n  /**\r\n   * @return the beneficiary of the tokens.\r\n   */\r\n  function getBeneficiary() external view returns (address) {\r\n    return beneficiary;\r\n  }\r\n\r\n  /**\r\n   * @return the initial amount claimable at t0;\r\n   */\r\n  function getInitialAmount() external view returns (uint256) {\r\n    return initialAmount;\r\n  }\r\n\r\n  /**\r\n   * @return the cliff time of the token vesting.\r\n   */\r\n  function getT0() external view returns (uint256) {\r\n    return t0;\r\n  }\r\n\r\n  /**\r\n   * @return the start time of the token vesting.\r\n   */\r\n  function getT1() external view returns (uint256) {\r\n    return t1;\r\n  }\r\n\r\n  /**\r\n   * @return the duration of the token vesting.\r\n   */\r\n  function getDuration() external view returns (uint256) {\r\n    return duration;\r\n  }\r\n\r\n  /**\r\n   * @return the amount of the token released.\r\n   */\r\n  function getReleased(address token) external view returns (uint256) {\r\n    return released[token];\r\n  }\r\n\r\n\r\n  /**\r\n   * @return the amount of the token vested.\r\n   */\r\n  function getVestedAmount(IERC20 token) external view returns (uint256) {\r\n    return _vestedAmount(token);\r\n  }\r\n\r\n  /**\r\n   * @notice Transfers vested tokens to beneficiary.\r\n   * @param token ERC20 token which is being vested\r\n   */\r\n  function release(IERC20 token) public {\r\n    uint256 unreleased = _releasableAmount(token);\r\n    require(unreleased > 0, 'TokenVesting: no tokens are due');\r\n\r\n    released[address(token)] = released[address(token)] + unreleased;\r\n\r\n    token.safeTransfer(beneficiary, unreleased);\r\n\r\n    emit TokensReleased(address(token), unreleased);\r\n  }\r\n\r\n\r\n  /**\r\n   * @dev Calculates the amount that has already vested but hasn't been released yet.\r\n   * @param token ERC20 token which is being vested\r\n   */\r\n  function _releasableAmount(IERC20 token) private view returns (uint256) {\r\n    return _vestedAmount(token) - released[address(token)];\r\n  }\r\n\r\n  /**\r\n   * @dev Calculates the amount that has already vested.\r\n   * @param token ERC20 token which is being vested\r\n   */\r\n  function _vestedAmount(IERC20 token) private view returns (uint256) {\r\n    uint256 currentBalance = token.balanceOf(address(this));\r\n    uint256 totalBalance = currentBalance + released[address(token)];\r\n\r\n    // before t0 nothing to vest\r\n    if (block.timestamp < t0) {\r\n        return 0;\r\n    // between t0 and t1, inital amount to vest\r\n    }else if (block.timestamp >= t0 && block.timestamp < t1) {\r\n        return initialAmount;\r\n    // after t1 + duration, total balance can be vested\r\n    }else if (block.timestamp > t1 + duration) {\r\n        return totalBalance;\r\n    // linear part during t1 and t1 + duration\r\n    }else{\r\n        // implicit, totalBalance > initialAmount\r\n        uint256 linearPart = totalBalance - initialAmount;\r\n        // after t1, initialAmount + a proportion of linear part claimable\r\n        return initialAmount + linearPart*(block.timestamp - t1)/duration;\r\n    }\r\n  }\r\n}\r\n",
  "sourcePath": "F:\\my-current-project\\20210923_Coinracer\\CRACE-contracts\\contracts\\TokenVesting.sol",
  "compiler": {
    "name": "solc",
    "version": "0.8.9+commit.e5eed63a.Emscripten.clang"
  },
  "schemaVersion": "3.4.3",
  "updatedAt": "2021-10-01T13:47:29.215Z",
  "devdoc": {
    "details": "A token holder contract that can release its token balance gradually like a typical vesting scheme, with a cliff and vesting period. Optionally revocable by the owner.",
    "kind": "dev",
    "methods": {
      "constructor": {
        "details": "Creates a vesting contract that vests its balance of any ERC20 token to the beneficiary, gradually in a linear fashion until start + duration. By then all of the balance will have vested.",
        "params": {
          "_beneficiary": "address of the beneficiary to whom vested tokens are transferred",
          "_duration": "duration in seconds of the period in which the tokens will vest",
          "_t0": "the time (as Unix time) at which point initial release start",
          "_t1": "the time (as Unix time) at which point linear release vesting starts"
        }
      },
      "getBeneficiary()": {
        "returns": {
          "_0": "the beneficiary of the tokens."
        }
      },
      "getDuration()": {
        "returns": {
          "_0": "the duration of the token vesting."
        }
      },
      "getInitialAmount()": {
        "returns": {
          "_0": "the initial amount claimable at t0;"
        }
      },
      "getReleased(address)": {
        "returns": {
          "_0": "the amount of the token released."
        }
      },
      "getT0()": {
        "returns": {
          "_0": "the cliff time of the token vesting."
        }
      },
      "getT1()": {
        "returns": {
          "_0": "the start time of the token vesting."
        }
      },
      "getVestedAmount(address)": {
        "returns": {
          "_0": "the amount of the token vested."
        }
      },
      "owner()": {
        "details": "Returns the address of the current owner."
      },
      "release(address)": {
        "params": {
          "token": "ERC20 token which is being vested"
        }
      },
      "renounceOwnership()": {
        "details": "Leaves the contract without owner. It will not be possible to call `onlyOwner` functions anymore. Can only be called by the current owner. NOTE: Renouncing ownership will leave the contract without an owner, thereby removing any functionality that is only available to the owner."
      },
      "transferOwnership(address)": {
        "details": "Transfers ownership of the contract to a new account (`newOwner`). Can only be called by the current owner."
      }
    },
    "title": "TokenVesting",
    "version": 1
  },
  "userdoc": {
    "kind": "user",
    "methods": {
      "release(address)": {
        "notice": "Transfers vested tokens to beneficiary."
      }
    },
    "version": 1
  }
}